{
  "contractName": "evBatteryMarketPlace",
  "abi": [
    {
      "inputs": [],
      "stateMutability": "nonpayable",
      "type": "constructor"
    },
    {
      "inputs": [],
      "name": "President",
      "outputs": [
        {
          "internalType": "address",
          "name": "",
          "type": "address"
        }
      ],
      "stateMutability": "view",
      "type": "function"
    },
    {
      "inputs": [
        {
          "internalType": "address",
          "name": "",
          "type": "address"
        }
      ],
      "name": "battery",
      "outputs": [
        {
          "internalType": "uint256",
          "name": "batteryStage",
          "type": "uint256"
        },
        {
          "internalType": "uint256",
          "name": "batteryLife",
          "type": "uint256"
        },
        {
          "internalType": "bool",
          "name": "batteryStatus",
          "type": "bool"
        },
        {
          "internalType": "uint256",
          "name": "counter",
          "type": "uint256"
        },
        {
          "internalType": "address",
          "name": "currentHolder",
          "type": "address"
        }
      ],
      "stateMutability": "view",
      "type": "function"
    },
    {
      "inputs": [
        {
          "internalType": "address",
          "name": "",
          "type": "address"
        }
      ],
      "name": "entity",
      "outputs": [
        {
          "internalType": "uint256",
          "name": "entityType",
          "type": "uint256"
        },
        {
          "internalType": "uint256",
          "name": "chargedBatteries",
          "type": "uint256"
        },
        {
          "internalType": "uint256",
          "name": "drainedBatteries",
          "type": "uint256"
        }
      ],
      "stateMutability": "view",
      "type": "function"
    },
    {
      "inputs": [
        {
          "internalType": "address",
          "name": "ent",
          "type": "address"
        },
        {
          "internalType": "uint256",
          "name": "entType",
          "type": "uint256"
        }
      ],
      "name": "register_entity",
      "outputs": [],
      "stateMutability": "nonpayable",
      "type": "function"
    },
    {
      "inputs": [
        {
          "internalType": "address",
          "name": "id",
          "type": "address"
        },
        {
          "internalType": "address",
          "name": "manufacturer_add",
          "type": "address"
        },
        {
          "internalType": "uint256",
          "name": "battery_life",
          "type": "uint256"
        }
      ],
      "name": "register_battery",
      "outputs": [],
      "stateMutability": "nonpayable",
      "type": "function"
    },
    {
      "inputs": [
        {
          "internalType": "uint256",
          "name": "addBatteries",
          "type": "uint256"
        }
      ],
      "name": "addChargeBattery",
      "outputs": [],
      "stateMutability": "nonpayable",
      "type": "function"
    },
    {
      "inputs": [
        {
          "internalType": "address",
          "name": "sender",
          "type": "address"
        },
        {
          "internalType": "address",
          "name": "reciever",
          "type": "address"
        },
        {
          "internalType": "uint256",
          "name": "amount",
          "type": "uint256"
        },
        {
          "internalType": "address",
          "name": "drained_id",
          "type": "address"
        },
        {
          "internalType": "uint256",
          "name": "used_life",
          "type": "uint256"
        },
        {
          "internalType": "address",
          "name": "charged_id",
          "type": "address"
        }
      ],
      "name": "batteryExchange",
      "outputs": [],
      "stateMutability": "nonpayable",
      "type": "function"
    },
    {
      "inputs": [
        {
          "internalType": "address",
          "name": "manufacturer",
          "type": "address"
        },
        {
          "internalType": "address",
          "name": "dealer",
          "type": "address"
        },
        {
          "internalType": "uint256",
          "name": "amount",
          "type": "uint256"
        },
        {
          "internalType": "address",
          "name": "id",
          "type": "address"
        }
      ],
      "name": "buyingBatteryFromManufacturer",
      "outputs": [],
      "stateMutability": "nonpayable",
      "type": "function"
    },
    {
      "inputs": [
        {
          "internalType": "address",
          "name": "id",
          "type": "address"
        }
      ],
      "name": "batteryStatusView",
      "outputs": [
        {
          "internalType": "uint256",
          "name": "stage",
          "type": "uint256"
        },
        {
          "internalType": "uint256",
          "name": "life",
          "type": "uint256"
        },
        {
          "internalType": "bool",
          "name": "status",
          "type": "bool"
        },
        {
          "internalType": "uint256",
          "name": "counter",
          "type": "uint256"
        },
        {
          "internalType": "address",
          "name": "current_holder",
          "type": "address"
        }
      ],
      "stateMutability": "view",
      "type": "function"
    },
    {
      "inputs": [
        {
          "internalType": "address",
          "name": "id",
          "type": "address"
        },
        {
          "internalType": "address",
          "name": "sender",
          "type": "address"
        }
      ],
      "name": "disposeBattery",
      "outputs": [],
      "stateMutability": "nonpayable",
      "type": "function"
    }
  ],
  "bytecode": "0x608060405234801561001057600080fd5b50336000806101000a81548173ffffffffffffffffffffffffffffffffffffffff021916908373ffffffffffffffffffffffffffffffffffffffff1602179055506129a9806100606000396000f3fe608060405234801561001057600080fd5b506004361061009e5760003560e01c80639e8578b6116100665780639e8578b614610147578063ce2a89b014610165578063d43fa2c114610181578063dcc7e5e2146101b3578063ec69a3b7146101cf5761009e565b80631664586c146100a35780636a9d4bea146100d757806389db09a3146100f357806389f81e421461010f5780638da450401461012b575b600080fd5b6100bd60048036038101906100b89190611ca6565b610203565b6040516100ce959493929190611d16565b60405180910390f35b6100f160048036038101906100ec9190611d95565b610266565b005b61010d60048036038101906101089190611dc2565b610415565b005b61012960048036038101906101249190611e02565b6108f2565b005b61014560048036038101906101409190611e69565b610ca1565b005b61014f611000565b60405161015c9190611ebc565b60405180910390f35b61017f600480360381019061017a9190611ed7565b611024565b005b61019b60048036038101906101969190611ca6565b611559565b6040516101aa93929190611f64565b60405180910390f35b6101cd60048036038101906101c89190611f9b565b611583565b005b6101e960048036038101906101e49190611ca6565b6116ec565b6040516101fa959493929190611d16565b60405180910390f35b60026020528060005260406000206000915090508060000154908060010154908060020160009054906101000a900460ff16908060030154908060040160009054906101000a900473ffffffffffffffffffffffffffffffffffffffff16905085565b60018060003373ffffffffffffffffffffffffffffffffffffffff1673ffffffffffffffffffffffffffffffffffffffff16815260200190815260200160002060000154146102ea576040517f08c379a00000000000000000000000000000000000000000000000000000000081526004016102e190612038565b60405180910390fd5b80600160003373ffffffffffffffffffffffffffffffffffffffff1673ffffffffffffffffffffffffffffffffffffffff168152602001908152602001600020600101546103389190612087565b600160003373ffffffffffffffffffffffffffffffffffffffff1673ffffffffffffffffffffffffffffffffffffffff1681526020019081526020016000206001018190555080600160003373ffffffffffffffffffffffffffffffffffffffff1673ffffffffffffffffffffffffffffffffffffffff168152602001908152602001600020600201546103cc91906120dd565b600160003373ffffffffffffffffffffffffffffffffffffffff1673ffffffffffffffffffffffffffffffffffffffff1681526020019081526020016000206002018190555050565b60008054906101000a900473ffffffffffffffffffffffffffffffffffffffff1673ffffffffffffffffffffffffffffffffffffffff163373ffffffffffffffffffffffffffffffffffffffff16146104a3576040517f08c379a000000000000000000000000000000000000000000000000000000000815260040161049a90612183565b60405180910390fd5b6000600260008473ffffffffffffffffffffffffffffffffffffffff1673ffffffffffffffffffffffffffffffffffffffff1681526020019081526020016000206001015414610528576040517f08c379a000000000000000000000000000000000000000000000000000000000815260040161051f906121ef565b60405180910390fd5b60001515600260008473ffffffffffffffffffffffffffffffffffffffff1673ffffffffffffffffffffffffffffffffffffffff16815260200190815260200160002060020160009054906101000a900460ff161515146105be576040517f08c379a00000000000000000000000000000000000000000000000000000000081526004016105b59061225b565b60405180910390fd5b60028060008473ffffffffffffffffffffffffffffffffffffffff1673ffffffffffffffffffffffffffffffffffffffff168152602001908152602001600020600001541415610643576040517f08c379a000000000000000000000000000000000000000000000000000000000815260040161063a90612313565b60405180910390fd5b60028060008473ffffffffffffffffffffffffffffffffffffffff1673ffffffffffffffffffffffffffffffffffffffff1681526020019081526020016000206000018190555060008054906101000a900473ffffffffffffffffffffffffffffffffffffffff16600260008473ffffffffffffffffffffffffffffffffffffffff1673ffffffffffffffffffffffffffffffffffffffff16815260200190815260200160002060040160006101000a81548173ffffffffffffffffffffffffffffffffffffffff021916908373ffffffffffffffffffffffffffffffffffffffff1602179055506000600160008373ffffffffffffffffffffffffffffffffffffffff1673ffffffffffffffffffffffffffffffffffffffff1681526020019081526020016000206002015414156107b1576040517f08c379a00000000000000000000000000000000000000000000000000000000081526004016107a8906123cb565b60405180910390fd5b60018060008373ffffffffffffffffffffffffffffffffffffffff1673ffffffffffffffffffffffffffffffffffffffff168152602001908152602001600020600201546107ff91906120dd565b600160008373ffffffffffffffffffffffffffffffffffffffff1673ffffffffffffffffffffffffffffffffffffffff1681526020019081526020016000206002018190555060007364bc9b3a267648643a687e2feadd4aa959603d2590508073ffffffffffffffffffffffffffffffffffffffff1663a9059cbb8360016040518363ffffffff1660e01b815260040161089a929190612430565b602060405180830381600087803b1580156108b457600080fd5b505af11580156108c8573d6000803e3d6000fd5b505050506040513d601f19601f820116820180604052508101906108ec9190612485565b50505050565b80600080600260008473ffffffffffffffffffffffffffffffffffffffff1673ffffffffffffffffffffffffffffffffffffffff1681526020019081526020016000206000015414610979576040517f08c379a0000000000000000000000000000000000000000000000000000000008152600401610970906124fe565b60405180910390fd5b6000600260008573ffffffffffffffffffffffffffffffffffffffff1673ffffffffffffffffffffffffffffffffffffffff16815260200190815260200160002060000154146109fe576040517f08c379a00000000000000000000000000000000000000000000000000000000081526004016109f59061256a565b60405180910390fd5b6001600260008573ffffffffffffffffffffffffffffffffffffffff1673ffffffffffffffffffffffffffffffffffffffff1681526020019081526020016000206000018190555084600260008573ffffffffffffffffffffffffffffffffffffffff1673ffffffffffffffffffffffffffffffffffffffff16815260200190815260200160002060040160006101000a81548173ffffffffffffffffffffffffffffffffffffffff021916908373ffffffffffffffffffffffffffffffffffffffff16021790555060018060008773ffffffffffffffffffffffffffffffffffffffff1673ffffffffffffffffffffffffffffffffffffffff16815260200190815260200160002060010154610b159190612087565b600160008773ffffffffffffffffffffffffffffffffffffffff1673ffffffffffffffffffffffffffffffffffffffff1681526020019081526020016000206001018190555060018060008873ffffffffffffffffffffffffffffffffffffffff1673ffffffffffffffffffffffffffffffffffffffff16815260200190815260200160002060010154610ba991906120dd565b600160008873ffffffffffffffffffffffffffffffffffffffff1673ffffffffffffffffffffffffffffffffffffffff1681526020019081526020016000206001018190555060007364bc9b3a267648643a687e2feadd4aa959603d2590508073ffffffffffffffffffffffffffffffffffffffff166323b872dd8789886040518463ffffffff1660e01b8152600401610c459392919061258a565b602060405180830381600087803b158015610c5f57600080fd5b505af1158015610c73573d6000803e3d6000fd5b505050506040513d601f19601f82011682018060405250810190610c979190612485565b5050505050505050565b60008054906101000a900473ffffffffffffffffffffffffffffffffffffffff1673ffffffffffffffffffffffffffffffffffffffff163373ffffffffffffffffffffffffffffffffffffffff1614610d2f576040517f08c379a0000000000000000000000000000000000000000000000000000000008152600401610d2690612183565b60405180910390fd5b6000600160008473ffffffffffffffffffffffffffffffffffffffff1673ffffffffffffffffffffffffffffffffffffffff1681526020019081526020016000206000015414610db4576040517f08c379a0000000000000000000000000000000000000000000000000000000008152600401610dab90612659565b60405180910390fd5b6000600260008573ffffffffffffffffffffffffffffffffffffffff1673ffffffffffffffffffffffffffffffffffffffff1681526020019081526020016000206000018190555081600260008573ffffffffffffffffffffffffffffffffffffffff1673ffffffffffffffffffffffffffffffffffffffff16815260200190815260200160002060040160006101000a81548173ffffffffffffffffffffffffffffffffffffffff021916908373ffffffffffffffffffffffffffffffffffffffff16021790555080600260008573ffffffffffffffffffffffffffffffffffffffff1673ffffffffffffffffffffffffffffffffffffffff168152602001908152602001600020600101819055506000600260008573ffffffffffffffffffffffffffffffffffffffff1673ffffffffffffffffffffffffffffffffffffffff168152602001908152602001600020600301819055506001600260008573ffffffffffffffffffffffffffffffffffffffff1673ffffffffffffffffffffffffffffffffffffffff16815260200190815260200160002060020160006101000a81548160ff02191690831515021790555060018060008473ffffffffffffffffffffffffffffffffffffffff1673ffffffffffffffffffffffffffffffffffffffff16815260200190815260200160002060010154610fb59190612087565b600160008473ffffffffffffffffffffffffffffffffffffffff1673ffffffffffffffffffffffffffffffffffffffff16815260200190815260200160002060010181905550505050565b60008054906101000a900473ffffffffffffffffffffffffffffffffffffffff1681565b6001600260008373ffffffffffffffffffffffffffffffffffffffff1673ffffffffffffffffffffffffffffffffffffffff168152602001908152602001600020600001541480156110b857506001600260008573ffffffffffffffffffffffffffffffffffffffff1673ffffffffffffffffffffffffffffffffffffffff16815260200190815260200160002060000154145b6110c157600080fd5b60001515600260008373ffffffffffffffffffffffffffffffffffffffff1673ffffffffffffffffffffffffffffffffffffffff16815260200190815260200160002060020160009054906101000a900460ff1615151514611158576040517f08c379a000000000000000000000000000000000000000000000000000000000815260040161114f906126c5565b60405180910390fd5b60001515600260008573ffffffffffffffffffffffffffffffffffffffff1673ffffffffffffffffffffffffffffffffffffffff16815260200190815260200160002060020160009054906101000a900460ff16151515146111ef576040517f08c379a00000000000000000000000000000000000000000000000000000000081526004016111e690612731565b60405180910390fd5b6000600160008873ffffffffffffffffffffffffffffffffffffffff1673ffffffffffffffffffffffffffffffffffffffff168152602001908152602001600020600101541415611275576040517f08c379a000000000000000000000000000000000000000000000000000000000815260040161126c906127c3565b60405180910390fd5b6000600160008773ffffffffffffffffffffffffffffffffffffffff1673ffffffffffffffffffffffffffffffffffffffff1681526020019081526020016000206001015414156112fb576040517f08c379a00000000000000000000000000000000000000000000000000000000081526004016112f290612855565b60405180910390fd5b60007364bc9b3a267648643a687e2feadd4aa959603d2590508073ffffffffffffffffffffffffffffffffffffffff166323b872dd8888886040518463ffffffff1660e01b81526004016113519392919061258a565b602060405180830381600087803b15801561136b57600080fd5b505af115801561137f573d6000803e3d6000fd5b505050506040513d601f19601f820116820180604052508101906113a39190612485565b506113af866001611883565b86600260008473ffffffffffffffffffffffffffffffffffffffff1673ffffffffffffffffffffffffffffffffffffffff16815260200190815260200160002060040160006101000a81548173ffffffffffffffffffffffffffffffffffffffff021916908373ffffffffffffffffffffffffffffffffffffffff16021790555085600260008673ffffffffffffffffffffffffffffffffffffffff1673ffffffffffffffffffffffffffffffffffffffff16815260200190815260200160002060040160006101000a81548173ffffffffffffffffffffffffffffffffffffffff021916908373ffffffffffffffffffffffffffffffffffffffff1602179055506001600260008473ffffffffffffffffffffffffffffffffffffffff1673ffffffffffffffffffffffffffffffffffffffff168152602001908152602001600020600301546115009190612087565b600260008473ffffffffffffffffffffffffffffffffffffffff1673ffffffffffffffffffffffffffffffffffffffff168152602001908152602001600020600301819055506115508484611a33565b50505050505050565b60016020528060005260406000206000915090508060000154908060010154908060020154905083565b60008054906101000a900473ffffffffffffffffffffffffffffffffffffffff1673ffffffffffffffffffffffffffffffffffffffff163373ffffffffffffffffffffffffffffffffffffffff1614611611576040517f08c379a000000000000000000000000000000000000000000000000000000000815260040161160890612183565b60405180910390fd5b80600160008473ffffffffffffffffffffffffffffffffffffffff1673ffffffffffffffffffffffffffffffffffffffff168152602001908152602001600020600001819055506000600160008473ffffffffffffffffffffffffffffffffffffffff1673ffffffffffffffffffffffffffffffffffffffff168152602001908152602001600020600101819055506000600160008473ffffffffffffffffffffffffffffffffffffffff1673ffffffffffffffffffffffffffffffffffffffff168152602001908152602001600020600201819055505050565b6000806000806000600260008773ffffffffffffffffffffffffffffffffffffffff1673ffffffffffffffffffffffffffffffffffffffff16815260200190815260200160002060000154600260008873ffffffffffffffffffffffffffffffffffffffff1673ffffffffffffffffffffffffffffffffffffffff16815260200190815260200160002060010154600260008973ffffffffffffffffffffffffffffffffffffffff1673ffffffffffffffffffffffffffffffffffffffff16815260200190815260200160002060020160009054906101000a900460ff16600260008a73ffffffffffffffffffffffffffffffffffffffff1673ffffffffffffffffffffffffffffffffffffffff16815260200190815260200160002060030154600260008b73ffffffffffffffffffffffffffffffffffffffff1673ffffffffffffffffffffffffffffffffffffffff16815260200190815260200160002060040160009054906101000a900473ffffffffffffffffffffffffffffffffffffffff169450945094509450945091939590929450565b60018060008473ffffffffffffffffffffffffffffffffffffffff1673ffffffffffffffffffffffffffffffffffffffff1681526020019081526020016000206000015414611907576040517f08c379a00000000000000000000000000000000000000000000000000000000081526004016118fe906128c1565b60405180910390fd5b80600160008473ffffffffffffffffffffffffffffffffffffffff1673ffffffffffffffffffffffffffffffffffffffff1681526020019081526020016000206001015461195591906120dd565b600160008473ffffffffffffffffffffffffffffffffffffffff1673ffffffffffffffffffffffffffffffffffffffff1681526020019081526020016000206001018190555080600160008473ffffffffffffffffffffffffffffffffffffffff1673ffffffffffffffffffffffffffffffffffffffff168152602001908152602001600020600201546119e99190612087565b600160008473ffffffffffffffffffffffffffffffffffffffff1673ffffffffffffffffffffffffffffffffffffffff168152602001908152602001600020600201819055505050565b6000600260008473ffffffffffffffffffffffffffffffffffffffff1673ffffffffffffffffffffffffffffffffffffffff168152602001908152602001600020600101541415611ab9576040517f08c379a0000000000000000000000000000000000000000000000000000000008152600401611ab090612953565b60405180910390fd5b600260008373ffffffffffffffffffffffffffffffffffffffff1673ffffffffffffffffffffffffffffffffffffffff168152602001908152602001600020600101548110611baa576000600260008473ffffffffffffffffffffffffffffffffffffffff1673ffffffffffffffffffffffffffffffffffffffff168152602001908152602001600020600101819055506000600260008473ffffffffffffffffffffffffffffffffffffffff1673ffffffffffffffffffffffffffffffffffffffff16815260200190815260200160002060020160006101000a81548160ff021916908315150217905550611c3f565b80600260008473ffffffffffffffffffffffffffffffffffffffff1673ffffffffffffffffffffffffffffffffffffffff16815260200190815260200160002060010154611bf891906120dd565b600260008473ffffffffffffffffffffffffffffffffffffffff1673ffffffffffffffffffffffffffffffffffffffff168152602001908152602001600020600101819055505b5050565b600080fd5b600073ffffffffffffffffffffffffffffffffffffffff82169050919050565b6000611c7382611c48565b9050919050565b611c8381611c68565b8114611c8e57600080fd5b50565b600081359050611ca081611c7a565b92915050565b600060208284031215611cbc57611cbb611c43565b5b6000611cca84828501611c91565b91505092915050565b6000819050919050565b611ce681611cd3565b82525050565b60008115159050919050565b611d0181611cec565b82525050565b611d1081611c68565b82525050565b600060a082019050611d2b6000830188611cdd565b611d386020830187611cdd565b611d456040830186611cf8565b611d526060830185611cdd565b611d5f6080830184611d07565b9695505050505050565b611d7281611cd3565b8114611d7d57600080fd5b50565b600081359050611d8f81611d69565b92915050565b600060208284031215611dab57611daa611c43565b5b6000611db984828501611d80565b91505092915050565b60008060408385031215611dd957611dd8611c43565b5b6000611de785828601611c91565b9250506020611df885828601611c91565b9150509250929050565b60008060008060808587031215611e1c57611e1b611c43565b5b6000611e2a87828801611c91565b9450506020611e3b87828801611c91565b9350506040611e4c87828801611d80565b9250506060611e5d87828801611c91565b91505092959194509250565b600080600060608486031215611e8257611e81611c43565b5b6000611e9086828701611c91565b9350506020611ea186828701611c91565b9250506040611eb286828701611d80565b9150509250925092565b6000602082019050611ed16000830184611d07565b92915050565b60008060008060008060c08789031215611ef457611ef3611c43565b5b6000611f0289828a01611c91565b9650506020611f1389828a01611c91565b9550506040611f2489828a01611d80565b9450506060611f3589828a01611c91565b9350506080611f4689828a01611d80565b92505060a0611f5789828a01611c91565b9150509295509295509295565b6000606082019050611f796000830186611cdd565b611f866020830185611cdd565b611f936040830184611cdd565b949350505050565b60008060408385031215611fb257611fb1611c43565b5b6000611fc085828601611c91565b9250506020611fd185828601611d80565b9150509250929050565b600082825260208201905092915050565b7f6d73672073656e64657220656e746974792074797065206973206e6f74203100600082015250565b6000612022601f83611fdb565b915061202d82611fec565b602082019050919050565b6000602082019050818103600083015261205181612015565b9050919050565b7f4e487b7100000000000000000000000000000000000000000000000000000000600052601160045260246000fd5b600061209282611cd3565b915061209d83611cd3565b9250827fffffffffffffffffffffffffffffffffffffffffffffffffffffffffffffffff038211156120d2576120d1612058565b5b828201905092915050565b60006120e882611cd3565b91506120f383611cd3565b92508282101561210657612105612058565b5b828203905092915050565b7f206f6e6c7920707265736964656e74206861732074686520657865637574696f60008201527f6e20726967687473000000000000000000000000000000000000000000000000602082015250565b600061216d602883611fdb565b915061217882612111565b604082019050919050565b6000602082019050818103600083015261219c81612160565b9050919050565b7f62617474657279206c696665206973206e6f7420796574207a65726f00000000600082015250565b60006121d9601c83611fdb565b91506121e4826121a3565b602082019050919050565b60006020820190508181036000830152612208816121cc565b9050919050565b7f6261747465727920737461747573206973206e6f742066616c73650000000000600082015250565b6000612245601b83611fdb565b91506122508261220f565b602082019050919050565b6000602082019050818103600083015261227481612238565b9050919050565b7f62617474657279207374616765206973206e6f7420322c20746861742069732060008201527f697473206e6f7420646561642c20706c6561736520726563616c63756c61746560208201527f2069747320616765000000000000000000000000000000000000000000000000604082015250565b60006122fd604883611fdb565b91506123088261227b565b606082019050919050565b6000602082019050818103600083015261232c816122f0565b9050919050565b7f647261696e6564206261747465726965732061726520302c207468652064656160008201527f6c657220697320747279696e6720746f20757365207468652066756e6374696f60208201527f6e207769746820302062617474657269657320617661696c61626c6500000000604082015250565b60006123b5605c83611fdb565b91506123c082612333565b606082019050919050565b600060208201905081810360008301526123e4816123a8565b9050919050565b6000819050919050565b6000819050919050565b600061241a612415612410846123eb565b6123f5565b611cd3565b9050919050565b61242a816123ff565b82525050565b60006040820190506124456000830185611d07565b6124526020830184612421565b9392505050565b61246281611cec565b811461246d57600080fd5b50565b60008151905061247f81612459565b92915050565b60006020828403121561249b5761249a611c43565b5b60006124a984828501612470565b91505092915050565b7f62617474657279207374616765206973206e6f7420636f727265637400000000600082015250565b60006124e8601c83611fdb565b91506124f3826124b2565b602082019050919050565b60006020820190508181036000830152612517816124db565b9050919050565b7f6261747465727920737461676520697320300000000000000000000000000000600082015250565b6000612554601283611fdb565b915061255f8261251e565b602082019050919050565b6000602082019050818103600083015261258381612547565b9050919050565b600060608201905061259f6000830186611d07565b6125ac6020830185611d07565b6125b96040830184611cdd565b949350505050565b7f74686520656e7469747920747279696e6720746f20726567697374657220746860008201527f652062617474657279206973206e6f7420612072656769737465726564206d6160208201527f6e75666163747572657200000000000000000000000000000000000000000000604082015250565b6000612643604a83611fdb565b915061264e826125c1565b606082019050919050565b6000602082019050818103600083015261267281612636565b9050919050565b7f636861726765642062617474657279207374617475732069732066616c736500600082015250565b60006126af601f83611fdb565b91506126ba82612679565b602082019050919050565b600060208201905081810360008301526126de816126a2565b9050919050565b7f647261696e65642062617474657279207374617475732069732066616c736500600082015250565b600061271b601f83611fdb565b9150612726826126e5565b602082019050919050565b6000602082019050818103600083015261274a8161270e565b9050919050565b7f73656e64657220646f65736e74206861766520616e792062617474657269657360008201527f20746f2065786368616e67650000000000000000000000000000000000000000602082015250565b60006127ad602c83611fdb565b91506127b882612751565b604082019050919050565b600060208201905081810360008301526127dc816127a0565b9050919050565b7f72656369657665722064656f736e74206861766520616e79206368617267656460008201527f2062617474657269657320746f2065786368616e676500000000000000000000602082015250565b600061283f603683611fdb565b915061284a826127e3565b604082019050919050565b6000602082019050818103600083015261286e81612832565b9050919050565b7f6465616c657220656e746974792074796f65206973206e6f74206f6e65000000600082015250565b60006128ab601d83611fdb565b91506128b682612875565b602082019050919050565b600060208201905081810360008301526128da8161289e565b9050919050565b7f62617474657279206c696665206973207a65726f20616c72656164792c20697460008201527f2073686f756c6420626520646973706f73656400000000000000000000000000602082015250565b600061293d603383611fdb565b9150612948826128e1565b604082019050919050565b6000602082019050818103600083015261296c81612930565b905091905056fea2646970667358221220d034ca172be828a72a53bbeb56de277acc6e129bc77adda6aea62d31a9deb28e64736f6c63430008090033",
  "immutableReferences": {},
  "source": "pragma solidity >=0.7.0 <=0.8.9;\n// SPDX-License-Identifier: MIT\n\nimport './EVBToken.sol';\n\ncontract evBatteryMarketPlace {\n\n    //data declarations\n    //enum for batteryStage\n    struct Battery {\n        uint batteryStage; // is it with the manufacturer(0), in the ecosystem(1) or dead(2)\n        uint batteryLife; //Remaining battery life\n        bool batteryStatus; // is it dead or alive: Bool\n        uint counter; // how many times has it been exchanged\n        address currentHolder; //address of the current holder\n    }\n\n    struct Entity {\n        uint entityType; //Organisation(0) /Dealer(1) /User(2)\n        uint chargedBatteries; //holding number of charged batteries\n        uint drainedBatteries; //holding number of drained batteries\n    }\n\n    address public President;\n    mapping(address => Entity) public entity;\n    mapping(address => Battery) public battery;\n\n    constructor() {\n        President = msg.sender;\n    }\n\n    //modifiers\n    //to check if battery is dead\n    modifier isBatteryDead(address bat_add){\n        require ( battery[bat_add].batteryStatus == true, \"battery status is not true\");\n        _;\n    }\n\n    //to check if the transacting address is the president\n    modifier onlyPresident (){\n        require(msg.sender == President, \" only president has the execution rights\");\n        _;\n    }\n\n    //to check that the battery is in the correct stage\n    modifier batteryCorrectStage (address bat_add, uint stage){\n        require(battery[bat_add].batteryStage == stage, \"battery stage is not correct\");\n        _;\n    }\n\n    //to check that the transacting entity is also the curent batttery holder\n    modifier batteryCurrentHolder (address bat_add, address currentholder){\n        require(battery[bat_add].currentHolder == currentholder, \"battery current holder doesnt match\");\n        _;\n    }\n\n    /**\n    * @dev register the ent, may it be manufacturer, swapper or disposer\n    * @param ent entity address, entType type of entity\n     */\n    function register_entity(address ent, uint entType) public onlyPresident{\n        entity[ent].entityType = entType;\n        entity[ent].chargedBatteries = 0;\n        entity[ent].drainedBatteries = 0;\n    }\n\n    /**\n    * @dev register a battery\n    * @param id address of the battery, manufacturer_add is the address of the manufacturer, battery_life is the life of that corresponsding battery\n    */\n    function register_battery(address id, address manufacturer_add, uint battery_life) public onlyPresident {\n        require ( entity[manufacturer_add].entityType == 0,\n        \"the entity trying to register the battery is not a registered manufacturer\"); //condition to check that the\n                                                             // batteries are retrieved only from manufacturers\n\n        battery[id].batteryStage = 0;\n        battery[id].currentHolder = manufacturer_add;\n        battery[id].batteryLife = battery_life;\n        battery[id].counter = 0;\n        battery[id].batteryStatus = true;\n        entity[manufacturer_add].chargedBatteries = entity[manufacturer_add].chargedBatteries + 1;\n    }\n\n    /**\n    * @dev Add the number of newly charged batteries with an entity and reduce the drained number for that entity.\n    * @param addBatteries num of batteries to add\n    * used only by the dealer when his batteries are charged\n    */\n    function addChargeBattery(uint addBatteries)  public {\n        require(entity[msg.sender].entityType == 1, \"msg sender entity type is not 1\");\n        entity[msg.sender].chargedBatteries = entity[msg.sender].chargedBatteries + addBatteries;\n        entity[msg.sender].drainedBatteries = entity[msg.sender].drainedBatteries - addBatteries;\n    }\n\n    /**\n    * @dev reduce the charged number of batteries with an entity and increase the drained number for that entity\n    * @param dealer address, num of batteries to reduce\n    */\n    function reduceDrainedBattery(address dealer, uint redBatteries) internal {\n        require(entity[dealer].entityType == 1, \"dealer entity tyoe is not one\");\n        entity[dealer].chargedBatteries = entity[dealer].chargedBatteries - redBatteries;\n        entity[dealer].drainedBatteries = entity[dealer].drainedBatteries + redBatteries;\n    }\n\n    /**\n    * @dev recalculate the battery life on every batteryExchange\n    * @param id is the battery address, life_reduction is the life to reduce for that particular battery\n    */\n    function recalculateBatteryLife(address id, uint life_reduction) internal {\n        require ( battery[id].batteryLife != 0, \"battery life is zero already, it should be disposed\");\n        if (life_reduction >= battery[id].batteryLife){\n            battery[id].batteryLife = 0;\n            battery[id].batteryStatus = false;\n        }\n\n        else{\n            battery[id].batteryLife = battery[id].batteryLife - life_reduction;\n        }\n    }\n\n\n\n    function batteryExchange (address sender, address reciever, uint amount, address drained_id, uint used_life, address charged_id) public{\n        //battery can only be exchanged if it is in the ecosystem\n        require ( battery[charged_id].batteryStage == 1 && battery[drained_id].batteryStage == 1);\n        //battery has to be alive to be exchanged\n        require ( ! battery[charged_id].batteryStatus == false, \"charged battery status is false\");\n        require ( ! battery[drained_id].batteryStatus == false, \"drained battery status is false\");\n        //the sender and receiver, both should have had a battery before transacting\n        require ( entity[sender].chargedBatteries != 0, \"sender doesnt have any batteries to exchange\"); // charged batteries because the exchanger will not hafve updated its own battery status ebfore exchanging\n        require ( entity[reciever].chargedBatteries != 0, \"reciever deosnt have any charged batteries to exchange\");\n\n        MyToken token = MyToken(0x64bc9b3a267648643A687E2Feadd4aA959603D25);\n        token.transferFrom(sender, reciever, amount);\n\n        reduceDrainedBattery(reciever, 1); //only the dealers charged batteries will be reduced\n\n        battery[charged_id].currentHolder = sender;\n        battery[drained_id].currentHolder = reciever;\n        battery[charged_id].counter = battery[charged_id].counter + 1;\n\n        recalculateBatteryLife(drained_id, used_life);\n\n    }\n\n    function buyingBatteryFromManufacturer (address manufacturer, address dealer,uint amount, address id) public batteryCorrectStage(id, 0){\n        require ( battery[id].batteryStage == 0, \"battery stage is 0\");\n        //update this for the stage to be 1 or 2 depeding on if its user/dealer buying battery\n        battery[id].batteryStage = 1;\n        battery[id].currentHolder = dealer;\n        entity[dealer].chargedBatteries = entity[dealer].chargedBatteries + 1;\n        entity[manufacturer].chargedBatteries = entity[manufacturer].chargedBatteries - 1;\n        MyToken token = MyToken(0x64bc9b3a267648643A687E2Feadd4aA959603D25);\n        token.transferFrom(dealer, manufacturer, amount);\n    }\n\n    // get for publicly checking the status\n    function batteryStatusView(address id) public view returns (uint stage,uint life,bool status,uint counter,address current_holder)\n\n    {\n        return (battery[id].batteryStage, battery[id].batteryLife, battery[id].batteryStatus, battery[id].counter, battery[id].currentHolder);\n    }\n\n\n    function disposeBattery (address id, address sender) public onlyPresident{\n        require ( battery[id].batteryLife == 0, \"battery life is not yet zero\");\n        require ( battery[id].batteryStatus == false, \"battery status is not false\");\n        require ( battery[id].batteryStage != 2, \"battery stage is not 2, that is its not dead, please recalculate its age\");\n        battery[id].batteryStage = 2; //converting the battery stage to dead\n        battery[id].currentHolder = President;\n\n        require ( entity[sender].drainedBatteries != 0, \"drained batteries are 0, the dealer is trying to use the function with 0 batteries available\");\n        entity[sender].drainedBatteries = entity[sender].drainedBatteries - 1;\n\n        MyToken token = MyToken(0x64bc9b3a267648643A687E2Feadd4aA959603D25);\n        token.transfer(sender, 1);\n    }\n\n}\n",
  "sourcePath": "/Users/rivendell/OneDrive - University at Buffalo/Academics/Semester1/BAD/Phase4/EvBatteryMarketPlace-Dapp 2/Ev-contract/contracts/BatterySwap.sol",
  "compiler": {
    "name": "solc",
    "version": "0.8.9+commit.e5eed63a.Emscripten.clang"
  },
  "schemaVersion": "3.4.3",
  "updatedAt": "2022-04-07T21:40:40.473Z",
  "devdoc": {
    "kind": "dev",
    "methods": {
      "addChargeBattery(uint256)": {
        "details": "Add the number of newly charged batteries with an entity and reduce the drained number for that entity.",
        "params": {
          "addBatteries": "num of batteries to add used only by the dealer when his batteries are charged"
        }
      },
      "register_battery(address,address,uint256)": {
        "details": "register a battery",
        "params": {
          "id": "address of the battery, manufacturer_add is the address of the manufacturer, battery_life is the life of that corresponsding battery"
        }
      },
      "register_entity(address,uint256)": {
        "details": "register the ent, may it be manufacturer, swapper or disposer",
        "params": {
          "ent": "entity address, entType type of entity"
        }
      }
    },
    "version": 1
  },
  "userdoc": {
    "kind": "user",
    "methods": {},
    "version": 1
  }
}